:020000041000EA
:1000000000B5324B212058609868022188439860DF
:10001000D860186158612E4B002199600221596106
:100020000121F02299502B49196001219960352056
:1000300000F044F80222904214D00621196600F024
:1000400034F8196E01211966002018661A6600F04E
:100050002CF8196E196E196E052000F02FF8012189
:100060000842F9D1002199601B49196000215960AB
:100070001A491B48016001219960EB211966A021F2
:10008000196600F012F800219960164914480160C1
:100090000121996001BC002800D000471248134993
:1000A000086003C880F30888084703B5996A0420EC
:1000B0000142FBD001200142F8D103BD02B5186610
:1000C0001866FFF7F2FF186E186E02BD00000240BE
:1000D000000000180000070000035F00212200005C
:1000E000F4000018222000A00001001008ED00E03C
:1000F00000000000000000000000000074B24E7A12
:1001000000200420F7010010C3010010C5010010F9
:10011000C1010010C1010010C1010010C101001097
:10012000C1010010C1010010C1010010C701001081
:10013000C1010010C1010010C9010010CB01001065
:10014000CD010010CD010010CD010010CD01001037
:10015000CD010010CD010010CD010010CD01001027
:10016000CD010010CD010010CD010010CD01001017
:10017000CD010010CD010010CD010010CD01001007
:10018000CD010010CD010010CD010010CD010010F7
:10019000CD010010CD010010CD010010CD010010E7
:1001A000CD010010CD010010CD010010CD010010D7
:1001B000CD010010CD010010CD010010CD010010C7
:1001C00000BE00BE00BE00BE00BE00BEEFF3058054
:1001D000103800BEF2EB8871CC460110E8460110E1
:1001E0003402001090A31AE700201F49086006C8D7
:1001F00081F3088810471D48006800282FD10DA4FE
:100200000ECC002902D000F012F8F9E71849194A7B
:10021000002000E001C19142FCD1174988471749ED
:1002200088471749884700BEFDE701C901C29A42C5
:10023000FBD37047E8460110C00000201C0A0020D4
:10024000445001100000042000000420445001101C
:10025000001004200010042000000000704709482E
:1002600004F018FC0047000008ED00E0000000D09A
:10027000200A0020780F002025310010D915001029
:10028000493200105756000006005250ABB360537D
:1002900058D2001006005250861C030268D200108B
:1002A000060052505422A29D74D2001005005250F4
:1002B000DE65F46844500110F8B5C04606480749A9
:1002C000091A8B10C90FC91810B5491003D0044B77
:1002D000002B00D0984710BD1C0A00201C0A0020EB
:1002E00000000000054B10B5002B03D00449054861
:1002F00000E000BFFFF7E2FF10BDC04600000000B5
:100300002C0F002050C7001070B5002005F0E8FE4B
:1003100000F0FAFC224D234C06002978206800F0FA
:1003200085FC0200F30314D4002E09DB730021D4F2
:10033000B30025D504239A4333401A43D2B204E0D4
:1003400001239A4333401A43D2B22978206800F03F
:100350008BFC00F099FC2978206800F067FC040011
:10036000114805F0D9FC200000F0B8FF012005F08D
:10037000B7FE70BD02239A4333401A43D2B2E4E77A
:10038000330107D47301E4D57F231A409E433243DF
:10039000D2B2DAE760239A4333401A43D2B2D4E7A9
:1003A000A0020020A4020020C8C7001010B5002041
:1003B00082B005F095FE01A800F0F4FE040000F004
:1003C00063FC230111D4630108D4A30014D4E40016
:1003D0001DD4012005F084FE02B010BD114B197828
:1003E000114B186800F06AFBF3E70E4B19780E4BBF
:1003F000186800F0ABFAECE76B466A4609490A4810
:100400005B7912790978006800F0F4FAE1E76B464D
:100410006A46044904485B7912790978006800F05B
:10042000A1FBD6E7A0020020A4020020F0B54F46B1
:100430004646D646374BC0B59946374B8026984638
:10044000364B40259A46364F82B0D02424060122EE
:1004500063689B0C1A420FD16661A561236D1A4235
:10046000F6D005F075FE02280FD0022826D8002805
:1004700029D0FFF749FFE8E7A6616561236D1A42BD
:10048000E6D005F065FE0228EFD1002005F028FE39
:10049000482000F0FFFD040000F0F6FB012005F00D
:1004A0001FFE002C20D1D0231B061A6DD207CCD5FD
:1004B00001219A6D1A6D1142FBD1C6E70328C6D1FE
:1004C000FFF774FFC1E700F0DFFB3868154900F063
:1004D00069F9D0231B061A6DD207B6D501219A6D92
:1004E0001A6D1142FBD1B0E76A46210038680D4B06
:1004F000073200F02FF9002806DD4B462100404668
:100500001C7005F099FDCEE72100504605F094FDE2
:10051000C9E7C046A0020020E0C7001004C80010D0
:10052000A4020020A086010030B5027943799A42E6
:1005300006D08468C56802694369AB4204D801D01B
:10054000002030BDA242FBD9121BAB41012011009B
:10055000002B01DDC0B2F4E7002B02D00020C0B2B6
:10056000EFE7024B9942F9D9C0B2EAE7400D030028
:10057000002310B5037101334371040002F014F934
:1005800002000B00A260E36000220023226163618D
:1005900010BDC046012310B5037100234371040050
:1005A00002F002F902000B002261636110BDC04637
:1005B000002303710022437100238260C360026143
:1005C0004361704703000B3B70B50400042B25D832
:1005D0001A4A9B009D580C230B400C2B27D00B076D
:1005E0001DD449071FD42800FFF79EFF002815D00F
:1005F0000F20134B001B04281DD000221A70D0239B
:100600001B061A6DD20704D501219A6D1A6D11428D
:10061000FBD1FA220023920005F06CFD70BD28008A
:10062000FFF7A6FFFAE72800FFF7B4FFDBE7280093
:10063000FFF7BEFFF2E701221A70EFE738C800109B
:10064000750F0020F0B5C6460E0000B5002923D076
:100650000123D0270400002598463F0607E07B626F
:10066000637A002B10D101350C34AE4214D02068CF
:1006700001F09CF94346206862688340002AEED16D
:10068000BB62637A002BEED000220121013501F01C
:1006900031F90C34AE42EAD180BCB846F0BDC04658
:1006A00070B50E1E16D00400002503E001350C3491
:1006B000AE420FD0237A002BF8D0206801220C2103
:1006C00001F02AF9013501210D2001F0D1F90C3496
:1006D000AE42EFD170BDC04670B50E1E16D00400FC
:1006E000002503E001350C34AE420FD0237A002BF5
:1006F000F8D0206800220C2101F00EF9013500210C
:100700000D2001F0B5F90C34AE42EFD170BDC046FA
:1007100070B504000E1E1CD0002502E00135AE426B
:1007200017D00321206801F0CDF80321606801F0A3
:10073000C9F8237A002BF1D000220121206801F0B2
:10074000D9F8013500220121606801F0D3F8AE42EA
:10075000E7D170BDF0B5CE464746994680B585B025
:1007600004000D0090464E4602F01EF8002780233C
:10077000801979411B06994202D301200849404261
:100780000023029003910093424629002000013388
:1007900005F010FF05B0C0BCB946B046F0BDC0467C
:1007A000FFFFFF7FF0B5DE4657464E464546E0B5B3
:1007B0008BB0059030488A4605F0AEFA2F4805F018
:1007C000ABFA2F4B002406932E4B07932E4B9B46E0
:1007D000E3B2994622000F2378251A40904625401F
:1007E0001C423DD0002D37D0782D35D001F0DCFFF4
:1007F000564600278023801979411B06994202D36F
:100800000120224940420290039104A98C46002312
:1008100017220093494601330598624405F0CAFE49
:100820005B46002800DC1A4B180005F005FC434627
:100830000F2B0FD00798013405F0FEFB802CC7D199
:10084000144805F069FA0BB0F0BCBB46B246A946A5
:10085000A046F0BD0698EEE7582005F011FAE6E74D
:1008600021000D4805F0E8FB002D01D0782DBDD109
:10087000582005F005FADDE754C8001064C80010E0
:1008800034C8001050C800104CC80010FFFFFF7F94
:10089000A4C80010A0C8001098C80010F0B5002728
:1008A00085B003AC05000E00278000F0D9FD0B22B7
:1008B00000236A441370012331000093280005F0DF
:1008C000C9FD0223220031000097280005F02AFE0E
:1008D000164805F021FA25786678154C154822004F
:1008E000210005F0A9FB144A1449154805F0A4FBA2
:1008F00022002100134805F09FFB3100280000F082
:10090000A5FD041C05F074F80600201C0F0000F083
:10091000AFFD05F06DF80C4C0090019132003B00EA
:10092000200005F089FB05B0F0BDC046F4C80010FA
:10093000A8C80010B0C80010BCC80010C4C800107F
:10094000CCC80010D8C80010E4C800100B22022345
:10095000F0B5002705000E0085B06A4403AC1370A3
:10096000013B2780009305F075FD02232200310032
:100970000097280005F0D6FD164805F0CDF925783A
:100980006678154C15482200210005F055FB144AE5
:100990001449154805F050FB22002100134805F0CA
:1009A0004BFB3100280000F051FD041C05F020F83D
:1009B0000600201C0F0000F05BFD05F019F80C4C40
:1009C0000090019132003B00200005F035FB05B09E
:1009D000F0BDC04608C90010A8C80010B0C800107B
:1009E000BCC80010C4C80010CCC80010D8C8001083
:1009F000E4C80010F0B50E000221C6460027884664
:100A000000B584B003AC21706270A3702200310085
:100A100000970323050005F01DFD0B2243466A44A1
:100A20001370013B278031000093280005F012FD70
:100A30000223220031000097280005F073FD1748BB
:100A400005F06AF925786678154C164822002100D1
:100A500005F0F2FA144A1549154805F0EDFA22009E
:100A60002100144805F0E8FA3100280000F0EEFCFF
:100A7000041C04F0BDFF0600201C0F0000F0F8FC71
:100A800004F0B6FF0C4C0090019132003B002000B6
:100A900005F0D2FA04B080BCB846F0BD08C9001019
:100AA000A8C80010B0C80010BCC80010C4C800100E
:100AB000CCC80010D8C80010E4C800100B220323D3
:100AC000F0B5002705000E0085B06A4403AC137032
:100AD000023B2780009305F0BDFC02232200310079
:100AE0000097280005F01EFD164805F015F9257839
:100AF0006678154C15482200210005F09DFA144A2D
:100B00001449154805F098FA22002100134805F011
:100B100093FA3100280000F099FC041C04F068FFEF
:100B20000600201C0F0000F0A3FC04F061FF0C4C39
:100B30000090019132003B00200005F07DFA05B0E5
:100B4000F0BDC04620C90010A8C80010B0C80010F1
:100B5000BCC80010C4C80010CCC80010D8C8001011
:100B6000E4C80010F0B50E000321C64600278846F1
:100B700000B584B003AC21706270A3702200310014
:100B800000970323050005F065FC0B2243466A44E9
:100B90001370023B278031000093280005F05AFCB7
:100BA0000223220031000097280005F0BBFC174803
:100BB00005F0B2F825786678154C16482200210019
:100BC00005F03AFA144A1549154805F035FA22009D
:100BD0002100144805F030FA3100280000F036FCFE
:100BE000041C04F005FF0600201C0F0000F040FC70
:100BF00004F0FEFE0C4C0090019132003B002000FE
:100C000005F01AFA04B080BCB846F0BD20C9001047
:100C1000A8C80010B0C80010BCC80010C4C800109C
:100C2000CCC80010D8C80010E4C8001030B585B09A
:100C30006A460C4B04001B780D0013730F2201232E
:100C40006A441370009305F005FC0023290000930B
:100C50002000013303AA05F065FC6B46187B05B044
:100C600030BDC04634CF001010B584B06C460123AF
:100C7000237300236273009303AA023305F0EAFB97
:100C8000002004B010BDC04610B500F0E9FB1348C9
:100C900005F042F8124805F03FF8124805F03CF81C
:100CA000114805F039F8114805F036F8104C2000CD
:100CB00005F032F80F4805F02FF80F4805F02CF832
:100CC0000E4805F029F80E4805F026F80D4805F005
:100CD00023F8200005F020F810BDC04638C90010E8
:100CE00060C9001088C90010B0C90010D8C9001030
:100CF00000CA001030CA001060CA001090CA00106C
:100D0000C0CA0010F0CA0010F0B54546DE4657468E
:100D10004E46E0B5B54B8BB00193B54BB54D029344
:100D2000B54B0393B54B0493B54B0593B54B069365
:100D3000B54B009308ABDC1DB44B079300F090FB60
:100D4000019804F0E9FF029804F0E6FF039804F02C
:100D5000E3FF049804F0E0FF059804F0DDFF069837
:100D600004F0DAFF009804F0D7FF2100280006F015
:100D700053F92378302B00D1FBE0352B0BD8302BE7
:100D8000DCD9323BDBB2032B00D9CBE0079A9B00C6
:100D9000D3589F4E9F46782BD0D1802040020BB075
:100DA000F0BCBB46B246A946A046F0BD994B9A4F4F
:100DB0009B469A4B9A469A4B99469A4B98463300D3
:100DC000464698460AE0312B00D105E1322B00D18E
:100DD00006E1332B00D105E1782BAFD000F040FBCA
:100DE000584604F099FF504604F096FF484604F038
:100DF00093FF300004F090FF380004F08DFF404670
:100E000004F08AFF2100280006F006F92378302B31
:100E1000D9D180204005C2E7834B844F9946844B4B
:100E200098463B004F46994605E0312B00D1CBE078
:100E3000782B00D182E700F013FB380004F06CFF40
:100E4000404604F069FF484604F066FF300004F0B5
:100E500063FF2100280006F0DFF82378302BE4D16F
:100E6000802080059BE7734B734F9B46734B9A46DC
:100E7000734B9946734B98463B005746B2465E46C5
:100E80009B460BE0312B00D1A4E0322B00D1A5E032
:100E9000332B00D1A8E0782B00D14FE700F0E0FA27
:100EA000300004F039FF380004F036FF484604F003
:100EB00033FF404604F030FF584604F02DFF504603
:100EC00004F02AFF2100280006F0A6F82378302B32
:100ED000D8D18020000562E75B4B5C4F99465C4BA4
:100EE00098463B004F46994604E0312B70D0782B52
:100EF00000D123E700F0B4FA380004F00DFF4046BB
:100F000004F00AFF484604F007FF300004F004FF35
:100F10002100280006F080F82378302BE5D18020CE
:100F2000C0043CE74B4B4C4F99464C4B384E9846CF
:100F30003B004F46994604E0312B47D0782B00D137
:100F4000FCE600F08DFA380004F0E6FE404604F0BE
:100F5000E3FE484604F0E0FE300004F0DDFE210030
:100F6000280006F059F82378302BE5D18020C00501
:100F700015E73B4B3B4F9946254E3B4B3A001F0034
:100F8000330090464E46994604E0312B1AD0782B18
:100F900000D1D3E600F064FA300004F0BDFE380062
:100FA00004F0BAFE404604F0B7FE484604F0B4FE32
:100FB0002100280006F030F82378302BE5D180207E
:100FC0000006ECE62948EAE62948E8E62948E6E68C
:100FD0002948E4E62948E2E62948E0E62948DEE631
:100FE0002948DCE62948DAE62948D8E620CB001073
:100FF00038CB001098CB00104CCB001060CB001009
:1010000070CB00107CCB00108CCB0010F4CC001007
:10101000C8CB001034CC001058CC001040CC0010CD
:1010200048CC001050CC001004CC001024CC001090
:1010300014CC001060CC0010B0CC001070CC0010AC
:1010400084CC001098CC0010C8CC0010E8CC001064
:10105000DCCC00103CCB0010F0CB0010DCCB00103F
:1010600024CB0010B4CB00109CCB001001000080FA
:10107000040000200200004080000004200000085E
:1010800008000010400000081000001018000010B8
:1010900060000008F0B5DE4657464E464546302310
:1010A000E0B587B004AAD37100F0DAF9314B324FC2
:1010B0009B46324B324E9A46324B334D9946334B18
:1010C000334C9846334B0193334B0293334B03938A
:1010D000584604F021FE504604F01EFE484604F037
:1010E0001BFE404604F018FE380004F015FE3000E8
:1010F00004F012FE280004F00FFE200004F00CFEA5
:10110000019804F009FE029804F006FE04ABD91D14
:10111000039805F081FF04ABDB79372B09D82F2B1F
:1011200024D9313BDBB2062B1ED81D4A9B00D35875
:101130009F46782B1AD1002400F092F9200007B0C6
:10114000F0BCBB46B246A946A046F0BD4A24F3E730
:101150004924F1E74E24EFE74D24EDE74F24EBE778
:101160004B24E9E74C24E7E74824E5E700F078F969
:10117000AEE7C04604CD00103CCD001018CD0010E5
:1011800048CD001024CD001054CD001030CD0010FB
:1011900060CD00106CCD0010C8CB001098CB0010B3
:1011A00078CD0010F0B557464E464546DE46414BD9
:1011B000E0B59B46404B8BB09A46404B404F99461A
:1011C000404B414E984604ABDC1D404B404D0193D3
:1011D000404B0390029300F043F9584604F09CFD05
:1011E000504604F099FD484604F096FD404604F050
:1011F00093FD380004F090FD300004F08DFD2100D7
:10120000280005F009FF2378302B09D0312B1ED0A0
:10121000322B33D0332B3AD0782BDCD100F020F9AD
:1012200000F01EF92C4804F007FF082106A800F082
:101230002FF908A906A800F087F900282AD1254827
:1012400004F06AFDFA20C00001F0A8F9C3E700F03D
:1012500007F9019804F0F0FE082106A800F018F93B
:1012600008A906A800F070F900281BD1029804F024
:1012700053FDFA20C00001F091F9ACE78020000591
:101280000BB0F0BCBB46B246A946A046F0BD8020DC
:10129000C004F5E78020089B039A80051370099B22
:1012A0005370EDE78020089B039A40051370099B5B
:1012B0005370E5E794CD0010A4CD0010C0CD001010
:1012C000F8CD0010DCCD0010C8CB001058CE0010B7
:1012D00098CB001028CE001010CE0010F8B50400F6
:1012E000454F380004F018FD444804F015FD38005F
:1012F00004F012FD424D4349280004F09DFEE3072F
:1013000054D4414E4149300004F096FE2800404933
:1013100004F092FEA3073AD43E49300004F08CFE5C
:1013200028003D4904F088FE63073AD430003B4969
:1013300004F082FE28003A4904F07EFEE3063948B4
:101340009B0F43D0012B53D0022B43D0062104F036
:1013500073FE2800344904F06FFE63069B0F30D003
:10136000012B40D0022B39D03000304904F064FE0C
:1013700028002F4964B204F05FFE002C1CDB300013
:10138000224904F059FE380004F0C6FCF8BD294992
:10139000300004F051FE28001F4904F04DFE6307A1
:1013A000C4D53000244904F047FEC3E7164E234954
:1013B000300004F041FEA9E73000204904F03CFE73
:1013C000E1E730001E4904F037FED1E7012104F0C7
:1013D00033FEBEE7042104F02FFEBAE730001949BE
:1013E00004F02AFEC4E73000174904F025FEBFE7E9
:1013F000022104F021FEACE770CE001098CE001060
:10140000CCCE0010C0CE0010D8CE0010E0CC001022
:10141000E4CE0010F0CE001000CF001010CF00106E
:101420001CCF00102CCF001038CF001060CF001060
:1014300068CF0010F8CE001014CF0010ECCC0010D4
:1014400048CF001058CF001050CF0010000210B548
:10145000084304F0A5FAEE21890504F09AFA10BDBC
:1014600010B5024804F0E8FD10BDC04674CF00106E
:1014700010B5054904F08DFA044904F076FA842188
:10148000C90504F06FFA10BD000010410000A04033
:1014900070B5060000244D1E04F0DCFDC3B20D2B18
:1014A00023D0082B24D07F2B22D01B2B24D0A54265
:1014B000F2DD3355FF23184004F0E2FB04F0CAFDCF
:1014C000C3B201340D2B10D0082BECD1082004F04E
:1014D000D7FB202004F0D4FB082004F0D1FB04F05B
:1014E000B9FDC3B2013C0D2BDBD10023335570BDD8
:1014F000002CEBD10024CFE704F0ACFDC0B25B2898
:10150000CAD104F0A7FDC0B2442816D04328C3D1E5
:10151000300005F019FEA042BED91B2004F0B0FB3C
:101520005B2004F0ADFB432004F0AAFB04F092FD25
:10153000C3B201340D2BC7D1D7E7002CDAD03C3829
:10154000013C04F09DFBA7E770B503780E00002571
:101550000024002B0CD13AE0303BDAB2092A22D821
:10156000A2001219520001359C18435D002B2ED0A9
:101570002E2BF1D143195B78002B28D0023540196E
:10158000012200250BE0A900491949005D1801302E
:1015900093009A18431E1B785200002B08D0303B52
:1015A000D9B20929EFD90B4804F0B6FB002070BD71
:1015B000624355190A21280003F09EFA0A2104000B
:1015C000280003F099FA012034607160EFE70021F0
:1015D000F9E7C04680CF0010F0B5D6464F464646E4
:1015E000C0B504F035FD274B09219A461800FFF7D6
:1015F00029F809215046FFF753F8234800F0B6F9BF
:10160000224B23499846186804F0FAFE012121482C
:10161000FFF77EF8204804F0EBFD204BD02419782A
:10162000994643461868FFF739F901261C4F2406EE
:1016300014E03B78002B05D04B46197843461868D8
:10164000FFF72CF98025FA20AD044000656100F019
:10165000A5FFFA20A561400000F0A0FF236D1E4207
:10166000E7D004F075FD002806D00128E1D109215A
:101670005046FFF715F8DCE709215046FFF72CF834
:10168000D7E7C0465CC70010C5050010A4020020C3
:10169000801A060050C700102D040010A002002080
:1016A000750F0020D0231B061B68824A99005258F0
:1016B000F0B5574692465A1E93413022DE464E46BA
:1016C00045465B421A4013007B4AE0B5944683B01E
:1016D00063440193794B884600260F279B46F20806
:1016E0001300019908339B005C5835000836002C24
:1016F00022D0012399465346002B26D039002140A1
:10170000274213D05B4642469A584B46AB401A429A
:101710000CD1072208002A40920090400200EB08FA
:1017200067483C339B001A502800D04724090135F4
:10173000002C01D0B542E1D3202ED0D103B0F0BCB3
:10174000BB46B246A946A046F0BD3900214027421B
:1017500009D00133AB409C4643465848C0586346C5
:10176000184200D17EE02309E6D00F221100194073
:101770001A420FD06B1C0E3A9A40944642464F488C
:1017800080586246104205D1DB084D4A3C330901BE
:101790009B009950230ACFD00F22110019401A4202
:1017A0000FD0AB1C0E3A9A409446424643488058AC
:1017B0006246104205D1DB08414A3C3309029B00D6
:1017C0009950230BB8D00F22110019401A4238D17A
:1017D000230CB1D00F22110019401A4247D1230D1A
:1017E000AAD00F22110019401A4251D1230EA3D0C2
:1017F0000F22110019401A420FD0AB1D0E3A9A4029
:10180000944642462D4880586246104205D1DB0876
:101810002B4A3C3309069B009950240F0735002CB6
:1018200000D189E701234146AB40244A52581A426D
:1018300000D081E7ED08224A3C352407AD00AC50CA
:101840007AE7EB1C0E3A9A40944642461B48805871
:1018500062461042BCD1DB08194A3C3309039B00A5
:101860009950B5E7164B3C329200D1507BE72B1DC7
:101870000E3A9A40944642461048805862461042BA
:10188000ADD1DB080E4A3C3309049B009950A6E712
:101890006B1D0E3A9A40944642460848805862466C
:1018A0001042A3D1DB08064A3C3309059B0099503E
:1018B0009CE7C046D00E002000410140540F00209C
:1018C00000400140094A10B5944640248300634417
:1018D0001A68C000624080341440802252011343D1
:1018E0001C60034B9C466044416010BD04C0014035
:1018F00000400140074B80009C4660440368C900DB
:1019000092000A435A400C231A4080235B01034390
:101910001A60704704C00140D0231B061B6830B515
:101920000500584243412F205B4283430D48EC0899
:101930008446072028408000814020000A4D3C302A
:1019400063448000A40041511B19002A04D0802266
:1019500092011343196030BDC022920113431960F4
:10196000F9E7C0463041014000400140D0231B064A
:1019700070B51C680B4EA40033590500002B03D032
:1019800000280AD0355170BD0028FCD0305100220B
:101990000D20054900F0BCF8F5E70D20024900F0E4
:1019A000A7F9EFE7D00E0020A51600100123D022E2
:1019B0008340120693629361094A40219446830052
:1019C00063441A68C0004A408031114080225201AD
:1019D00013431960034B9C460523604443607047E2
:1019E00004C0014000400140024B18688007C00F4E
:1019F0007047C04600C0064070B5EFF3108C72B659
:101A00000D4D2B68002BFCD0BFF35F8F0724CB0854
:101A1000C618C05C01230C40A3401C0004400342D4
:101A200007D118433070BFF35F8F2C608CF31088A0
:101A300070BD100001F028FC2C0100D00021044BE7
:101A4000044ABFF35F8F02C39342FAD17047C04686
:101A5000000100D0800100D0044A1078431CDBB2A2
:101A6000172B00D9102313707047C046A80200201E
:101A700001238340002904D0034A1360034A136002
:101A80007047034A1360FBE780E200E000E100E0FA
:101A900080E100E001228240034B1B6813405A1E84
:101AA0009341D8B27047C04600E100E0024B1030CD
:101AB0009B688000C058704700ED00E070B50D00D5
:101AC000EFF3108672B60F4A1368002BFCD0BFF3F9
:101AD0005F8F0D4B10309B6884001B590B4A93425B
:101AE00003D09D4201D001F0E7FB074B9B681D51DD
:101AF000BFF35F8FBFF35F8F0022024B1A6086F344
:101B0000108870BD240100D000ED00E0CD01001070
:101B1000F0B54E464546DE465746E0B583B0060072
:101B200000919046EFF3108B72B6654A1368002B54
:101B3000FCD0BFF35F8F0025624B5D579A46002DA6
:101B400000DA79E052466B005F4C5F19BF000193E9
:101B5000E31999469B79103613705C4BB6009B686D
:101B600099590B1B2F2B33D9594B994200D07CE04C
:101B7000019B02379C46574B6544AD006353564B5F
:101B8000E719043BDB1B554A1B055B0D6519134325
:101B90006B80534B0121AB80FF23AB714346EB714C
:101BA000009BAB604B460B431900484B9B68995117
:101BB000BFF35F8FBFF35F8F0022414B1A608BF33F
:101BC000108803B0F0BCBB46B246A946A046F0BDA3
:101BD00001200A008243D379434549D9BC46474690
:101BE000884607E05800C01880002018C179B94223
:101BF00028D902000623D356002BF3DA9A46131D88
:101C00009C464146B846374F484663460438C01A9A
:101C10000005324B400D1843019B908095715A1975
:101C200053469200A418A37143462F4AE371009BC8
:101C30002260A780A360B8E701F03EFB0025534671
:101C40005D577FE79A464146131DB84667469C4656
:101C50009088043740050015E7196044C01BE02751
:101C60000005400D3F020743CEE701F025FB7FE76B
:101C700013001E491B1B5B415943090D154BBD1C2D
:101C8000E353154B6519043B5B1B1B05134D5B0DA3
:101C90002B43AC464D466B8065460437131FE7194E
:101CA000DB1B1B055B0D1D434B4699714146D971EA
:101CB00000999D80996049460B4B0143136074E77E
:101CC000240100D0760F0020AC02002000ED00E0DF
:101CD000CD01001000A1FFFFDC02002000E0FFFFAB
:101CE00001BDFFFF01BD000001488047AAAA000016
:101CF000F0B5DE4657464E464546E0B50C0083B08B
:101D0000EFF3108872B65D4A1368002BFCD0BFF366
:101D10005F8F5B4B5B499A68030010339F00D55976
:101D20008D4239D0A5424AD0574EAA1B2F2A33D80C
:101D300001229246824091464846544A1268104019
:101D400001904846524A1060BFF35F8FEFF305825F
:101D50009346002A35D0934201D001F0ADFA2A0013
:101D600053469A439068844208D175E04B005B1853
:101D70009B00F3189868A04234D01A0006215156EF
:101D80000029F3DA844253D0019B002B26D04A4627
:101D9000404B1A603D4B1A60394B9B68DD51BFF3D5
:101DA0005F8FBFF35F8F0022344B1A6088F3108877
:101DB00003B0F0BCBB46B246A946A046F0BD0D003C
:101DC000EAE72A0053469A4390688442D6D1062017
:101DD00010561300002809DA0D0031E04A462C4B5A
:101DE0001A60D9E706201856002822DB4200111895
:101DF000890074188A46A1689960E179D971062131
:101E000061569971002925DBA488F11A640524150F
:101E100054440919E0240905490D240221439980FD
:101E200013181D4A9B001178F31899711070ABE7D5
:101E300013005946002914D1FF319171174991803F
:101E400015490A789A71164A9B1B5B415A43120D39
:101E50000A7099E71349E2E706201056130000289C
:101E6000C4DA114A1149D21A083A5002400D01430E
:101E700099800F4952080A43DA8085E7240100D08F
:101E800000ED00E0CD010010AC02002000E100E018
:101E900080E100E080E200E0760F002001BDFFFF5E
:101EA000AAAA000001BD0000E602002000F0FFFF2A
:101EB00000F8FFFF70B5EFF3058101240443EFF351
:101EC000108C72B6214A1368002BFCD0BFF35F8FD1
:101ED0001F4B05001F4AED1A6D416A43120D1E4D3E
:101EE0008900AE6852B27658A6421CD006215956D7
:101EF00091421CD012215956914222D01E2159568E
:101F0000914220D02A2159560324914210D0134BDC
:101F100019781A708171BFF35F8F00220B4B1A6022
:101F20008CF3108870BDAB680D4C5C50EFE700245B
:101F30006100091989005B18FF219971094999808D
:101F4000E5E70124F4E70224F2E7C046240100D0CB
:101F5000AC020020AAAA000000ED00E0760F0020ED
:101F6000CD01001001BDFFFF054B064A1360064A74
:101F7000136053609360D360136153619361704742
:101F80008080808000E400E004E400E0024B9C4696
:101F900061448900016070474000003410B50400BE
:101FA000FFF75AFD01002000FFF7F0FFFF23237128
:101FB000BFF35F8F10BDC04610B50400FFF74CFDA6
:101FC00001002000FFF7E2FFFF23A380BFF35F8F34
:101FD00010BDC04683680B4810B584466144624416
:101FE0001201090159189B185C684A680120944243
:101FF00001D802D00020C0B210BD1A680B689A4206
:10200000F9D8F7E7FFFFFF0F0A4B1968EFF31080CD
:1020100072B60A68002AFCD0BFF35F8F1B68BFF35B
:102020005F8F00221A6080F3108840BF00200021DB
:102030007047C046600F0020F8B5574645464E46EB
:10204000DE46E0B598460CAB1C780DAB1B7807005C
:1020500091469A460568002C5AD1AC7B002C3BD0A7
:10206000660029683619033E89194B78AB73002B3B
:1020700000D1EB7300238B704B700B702B4BE2186D
:10208000BB6812019B184A461A6042465A600A9A77
:102090009A600B9ADA6000238B704B700B706B7B2D
:1020A0009B46002B27D022006B685946A8689847AA
:1020B0005B465B005B442A68033B002812D058460D
:1020C0009619B070D118D35C002B00D073705B46AA
:1020D0000C706B735C450FD0F0BCBB46B246A94692
:1020E000A046F8BDD3189C709119925D002A00D0CB
:1020F0005A705B460B706C734A464346387D00F05D
:10210000E7FB051E0AD10E9B002BE5D01D70E3E70F
:10211000660029683619033E8919AFE75346002B3C
:10212000F1D12100386800F0EBFDECE7FFFFFF0F75
:10213000F0B5DE4657464E4645460023E0B58BB027
:102140000893684B8200D45800239B46099000F006
:102150002BFB02000B006068EFF3108A72B6564644
:1021600001680029FCD0B246BFF35F8F21684F7B26
:102170008C46002F2ED0A5685B49A9467918090125
:10218000894449460868496805000E00AD1A9E4119
:10219000002E5FDD02000B00099800F099FB002380
:1021A000002299460023069207930023984663680D
:1021B000BFF35F8F5A461A608AF310884346002B9C
:1021C00012D10028C3D10BB0F0BCBB46B246A94621
:1021D000A046F0BD002300229946002306920793F3
:1021E000002300209846E2E7089B4946180238433E
:1021F000C047626805000E00EFF3108A72B61368DC
:10220000002BFCD0BFF35F8F002E41DB2B0033434C
:1022100002D02369002B56D12368D97B002905D031
:102220001A68480041185218033A57709A7B002ADE
:1022300000D19F73DF73E268013FD35D0133D35553
:102240005B4623616368BFF35F8F5A461A608AF367
:1022500010887CE7002E02D1002D00D09AE70021E3
:10226000604600F0CBFC4B461A685B680692079309
:102270004B469B6898464B46DB689946E368DB19FA
:10228000013B1B7808931B020343236100208EE768
:102290002369002BC0D0069A079B8021521BB341B3
:1022A00009068B4202D30122104B524200210491B5
:1022B0000131039149460191414620000297009166
:1022C000FFF7BAFEBCE700F06FFA2A0033001218DD
:1022D0004B41802109068B42E8D30122034B524235
:1022E000E4E7C046440F0020FFFFFF0FFFFFFF7F22
:1022F00010B5144C6368002B04D00A211248FFF774
:1023000045FE10BD2300114A1021206800F092FB09
:10231000032000F03DFA032000F042FB03200C49AB
:1023200000F090FAFFF798FB0A4B9C4603232375B5
:10233000D0231B061B6860446375074B80006060F8
:10234000DC60DAE7F4020020600F0020D51F0010E7
:102350003121001040000034440F0020F0B55746F2
:102360004E464546DE46E0B585B0019310AB1B787E
:102370000600039300239A46984600927268EFF392
:10238000108B72B61368002BFCD0BFF35F8F3568DB
:10239000AC7B002C00D16EE067002B683F19033F37
:1023A000DB195A78AA73002A00D1EA73484AA118A7
:1023B000B2680901521800980199106051600E9995
:1023C00091600F99D16042469A705A701A706B7B77
:1023D0009946002B00D16BE022006B684946A86843
:1023E00098474B465B004B442A68033B002856D075
:1023F0004846D719B870D118D35C002B00D07B7039
:102400004B460C706B734C4553D0F3681B19013B62
:1024100018787368BFF35F8F42461A608BF3108899
:102420005346002B08D10002204305B0F0BCBB4648
:10243000B246A946A046F0BD039B002B46D00E9B9A
:1024400000200F99984703000B433FD004000D1E56
:102450001ADA009A019B121BAB4100920193802271
:102460001206934204D301231A4C5B420093019459
:10247000039B9A4682E77368BFF35F8F1C608BF300
:10248000108801204042D0E700F08EF98022001928
:1024900069411206009001919142E9D3E3E7D31814
:1024A0009C70D119D25D002A00D05A704B460B7037
:1024B0006C73307D009A019B00F00AFA8246002876
:1024C000A3D02100306800F01BFC9EE70020ACE7A1
:1024D000FFFFFF0FFFFFFF7FF0B504000D00062692
:1024E0007642F717C64636196F4100B584B08F4261
:1024F00014D811D000F058F932003B00121A8B4169
:10250000002B15DC002B3ED02000290000F08AF9BA
:1025100004B080BCB846F0BD8642EBD90026002747
:1025200000F042F932003B00121A8B41002BE9DD2A
:10253000002302930193154B3200009314483B0093
:10254000FFF70CFF0028DFDB00239846BC46114A4A
:10255000114F7B6A9C4504D8B96AB142D4D29C45DC
:10256000D2D11168EFF3108072B60B68002BFCD04B
:10257000BFF35F8F1368BFF35F8F4146196080F32D
:10258000108820BFE5E7002ABED0D1E7092000105F
:10259000F4020020600F00200040054070B50600E6
:1025A00000F002F9FA2204000D000023300000219F
:1025B000920003F0B7F98023001969411B06994284
:1025C00002D3012002494042FFF786FF70BDC0469A
:1025D000FFFFFF7FF0B5EFF30583CE46474680B59A
:1025E00005000C0085B0002B12D02A4A0020536A47
:1025F000A34203D3926A0130AA4204D305B0C0BCFF
:10260000B946B046F0BD1B1B5A1E9341D8B2F5E740
:10261000214E02930193214B0200009330000B00E6
:10262000FFF79CFE031EE0DD20BF7168EFF310870B
:1026300072B60A68002AFCD0BFF35F8FDAB2944604
:10264000FF2230681A40417B61450FD001688946FE
:10265000510088464946904441440339897800290D
:1026600004D13269934209D1316107E0F1681B0A54
:102670008A18013A1278DBB29A4207D07368BFF326
:102680005F8F00221A6087F31088AEE7614600F082
:1026900037FBF3E700400540F4020020092000105A
:1026A000084A4368516A10B5046800208B4203D879
:1026B000926A0130A24200D310BD5B1A5A1E9341A8
:1026C000D8B2F9E700400540026043600048704717
:1026D000A1260010F0B5EFF30582D6464F464646D8
:1026E0001000C0B51038EFF3108872B6214C236883
:1026F000002BFCD0BFF35F8F0123190081401E4DDA
:102700001F006963AA461D4D29601D4D2E78AC46F9
:102710003500C5402F402B4215D053465F6A194BF8
:102720008500EB589F4218D36246174B8E43EB58F7
:102730001670BFF35F8F0022226088F31088002B91
:1027400006D0984704E0BFF35F8F276088F31088B6
:10275000E0BCBA46B146A846F0BD0C4B92009C4680
:10276000624413681360BFF35F8F0023236088F314
:102770001088EDE7280100D0004005403C7005407E
:10278000770F0020640F0020C00E0020D03F0540CE
:1027900010B5034B01001800024AFFF72DF910BDD8
:1027A000740F0020A8CF0010034B596A0A00986AE2
:1027B000596A8A42FAD170470040054070B504005A
:1027C0000D00174A536A1900966A536A8B42FAD170
:1027D0003000190024184D41AB4216D813D0104BCD
:1027E0002A005B6A9D4203D90D494B6A9342FCD390
:1027F000934207D10A4A02E0516A994202D1916A92
:10280000A142F9D370BDA642E9D9054B5B6A1C0011
:102810005A1CEFD0012201246442E5175242E3E73B
:1028200000400540064A536A9942FCD807D1044B40
:1028300002E05A6A914202D19A6A8242F9D3704701
:102840000040054070B504000D00EFF3108672B62D
:102850001A4A1368002BFCD0BFF35F8F002D1BD0EA
:102860002000FFF723F9164981420AD02000FFF724
:1028700025F901212000FFF7FBF80123A340114AAD
:102880001360114BA400E550BFF35F8F00220B4B88
:102890001A6086F3108870BD0121A1400A4BA20086
:1028A000D5500A4B20001A788A4305491A70FFF761
:1028B0001FFA00212000FFF7DBF8E5E7280100D030
:1028C000D526001038600540C00E0020770F00208C
:1028D000F0B54F46D6464646C0B507002B4C616A58
:1028E0000D00A66A616AA942FAD18B4208D805D0C8
:1028F0000120E0BCBA46B146A846F0BDB242F7D9C5
:10290000EFF3108A72B6224801680029FCD0BFF3A9
:102910005F8F0125BD401F491C4C884609788946B8
:102920002943C9B28C46414660460870391D89006A
:1029300065630A511849B8004350216A00202942B2
:1029400019D0616A0800A66A616A8142FAD18B4295
:1029500019D801D1B24216D8CC450BD00B4B1F224F
:102960001D625D6301233A4093400C4A1360434665
:102970004A461A700120BFF35F8F0022044B1A6091
:102980008AF31088B5E70020F5E7C046004005400F
:10299000280100D0770F0020640F002080E200E0C3
:1029A000EFF3108C72B60A490B68002BFCD0BFF312
:1029B0005F8F01238340074A0748136202789A43D6
:1029C0000270BFF35F8F00230B608CF31088704799
:1029D000280100D000400540770F002070B50600A8
:1029E0000D00140000291DD0002A12D073688068E1
:1029F000984762006B0012195B193168033A033B78
:102A0000002808D08A189570C818CB5C002B0BD111
:102A10000470280070BDCB189C7088188A5C002A4E
:102A200005D105702000F5E753700470F1E75A7086
:102A30000570F7E710B583600023CCB24373013310
:102A4000426004738373C4730068421C012C05D96F
:102A50000133DBB2137003329C42F9D1FF230B40E8
:102A60005A00D318C01800230338437010BDC04665
:102A700070B505000C1E07D0630001681B19033BED
:102A8000CB185A78002A01D1200070BD5000801860
:102A90000338091800204E7848702100587028002B
:102AA000FFF79CFF310004002800FFF7E1FF06005C
:102AB000002C20D00028E7D0320021006B68A868E5
:102AC00098477200630092191B192968033A033B67
:102AD000002808D08A189470C818CB5C002B00D04E
:102AE00053700670D0E7CB189E7088188A5C002A55
:102AF00000D05A7004703400C6E7C046F0B557469F
:102B00004546DE464E46E0B50D006F0001687F1970
:102B1000033F0400C85D83B00192CA19002850D059
:102B200043001B18033BCB185E78B446002E1AD125
:102B3000019E002E42D0E67B002E04D073009B192C
:102B4000CB18033B5D70A37B002B00D1A573E5730D
:102B500000282FD10023537003B0F0BCBB46B2460F
:102B6000A946A046F0BD72006244033A8A18517823
:102B700088460021517089465970320001002000BA
:102B8000FFF72CFF43468246002B07D05B002168ED
:102B90004344033BCB185A78002A16D1424651468B
:102BA0002000FFF71BFF2168019BCA19002BC2D12F
:102BB0000028CFD043001B18033BCB18002199708D
:102BC000C8E7019B002BB6D1C4E75000801803383A
:102BD0000918487883464846487058704146200096
:102BE000FFF7FCFE594680462000FFF741FF4146B3
:102BF00002002000FFF7F2FE8046CFE7F0B557460F
:102C00004546DE464E46E0B583B00191457B040063
:102C10006F0000687F19033FC15DC219002952D0BF
:102C20004B005B18033BC3185E78B446002E1CD1E2
:102C3000019E002E44D0E67B002E04D073009B1929
:102C4000C318033B5D70A37B002B00D1A573E57314
:102C5000002931D1002328005370617303B0F0BC08
:102C6000BB46B246A946A046F0BD72006244033A94
:102C7000821850788046002050708146587032008B
:102C80002000FFF7ABFE43468246002B07D05B00D7
:102C900021684344033BCB185A78002A17D1424697
:102CA00051462000FFF79AFE019B01002068C219DF
:102CB000002BC0D10029CDD04B005B18033BC318BB
:102CC00000209870C6E7019B002BB4D1C2E75000EA
:102CD0008018033809184878834648464870587069
:102CE00041462000FFF77AFE594680462000FFF754
:102CF000BFFE414602002000FFF770FE8046CEE78F
:102D000070B5050000292CD0437B8B422ED04C009F
:102D100000686418033C0419A278002A21D05300EB
:102D20009B18033BC25CC6188A4202D11BE0002AF2
:102D300008D053009B18033BC3185A788A42F6D137
:102D400062785A70002301222800A3706370FFF795
:102D5000D5FE697B02002800FFF740FE6873012062
:102D600000E0002070BD63783370EBE701221900AA
:102D7000FFF7C4FEF2E7C04610B50C2082B000F0A9
:102D8000B5F9FEF731FE002810D08B4B8B488B49EC
:102D90008B4A186059609860D960186159619861D0
:102DA000D961186259625A6202B010BD854CA067A1
:102DB00000F0A4F90122844B1A60636C012BFCD152
:102DC0000322824B1A607F4A936B012BFCD10133A3
:102DD00001217F4A7F480093043300F037F905232F
:102DE0007D4A009301217D4800F030F97C4B5A6800
:102DF000FF2A02D8802252005A608022734B6E4C08
:102E000012011A602169002907D0606901F09CFE57
:102E1000013043001B18033BFDD2E022704B714888
:102E200019680A40026002221968514001320A40C2
:102E3000042102609A681142FCD080216A4A09018B
:102E40001160802252005A60684B2361684B5968B8
:102E5000FF2900D85A60032201215B4B1A60644AA3
:102E600093681942FCD0E023106803406148036076
:102E7000126803234A40022113405D4A03609368AD
:102E80001942FCD080215C4B0901196080215B4B09
:102E90004900516063615A4B5A68FF2A00D8596053
:102EA0008022584B12011A60E169002907D060693D
:102EB00001F04AFE013043001B18033BFDD2E02322
:102EC0004F4A11680B4050490B6080214F4B09015C
:102ED00019608021394B49005160E3614C4B5A68BD
:102EE000FF2A00D8596080224A4B12011A60216AD9
:102EF000002907D0606901F027FE013043001B184C
:102F0000033BFDD2E023424A11680B4042490B606B
:102F10008021424B0901196080235B0053608022AD
:102F2000264BD20223623E4B5968914200D25A602E
:102F300080223C4B12011A60616A002907D0606947
:102F400001F002FE013043001B18033BFDD2E023D9
:102F5000334A11680B4034490B608021334B09011F
:102F600019608023DB025360154B6362304B5A6853
:102F7000FF2A02D8802252005A6080222D4B120173
:102F80001A60A169002907D0606901F0DDFD0130F8
:102F900043001B18033BFDD2E023254A11680B4078
:102FA00025490B608021254B0901196080235B00B6
:102FB0005360124BA361F7E6200A0020006CDC028C
:102FC0001BB70000008000403CB0004030B0004023
:102FD000002F685900800240008C864700C00240E4
:102FE000308000403090004030A00040001BB7000F
:102FF0003C8000403C9000403CA00040405973079A
:103000005480004054B000405490004054A0004010
:103010006080004060B000406090004060A00040D0
:103020006C8000406CB000406C9000406CA0004090
:103030004880004048B000404890004048A0004010
:10304000014B8000C0587047200A0020F8B50400EA
:1030500021481D0017000E0001F076FD0100380028
:1030600001F072FD069B29041B0319432368002B02
:1030700020DB1A4B1A4DE21853425A4180235B0160
:103080009C461203174B62441A60174B1A601700D4
:10309000AB689F43FBD1C022231D92011A43212319
:1030A0002660A06013602368002BFCDA0823E1602F
:1030B0001360F8BD3F2322681340B342D9D1A368FF
:1030C0001B051B0D8342D4D1EE22E368D2021340CC
:1030D0008B42CED1EDE7C046001BB7000040FDBFDC
:1030E00000C0004000E0004000F000408023024AA1
:1030F0009B000343D362704700800540AA23064A21
:103100001B0113602F230549D360054B19605368D9
:10311000002BFCDA7047C0460040024000B0FA00C5
:10312000006002402B4B2C4A70B51A602B4A2C4B86
:103130002C491A6014008B689C43FBD12A4D2B4EFE
:10314000B54208D2013E761BB60808CD9847230049
:103150000134B342F9D1FFF70FFE254A204B1A6024
:10316000204A9368DB43DB01DD09002BF9D14022C3
:10317000204B214E214C9A675A671A67DA66B4428F
:1031800008D2236820000834002B1FD0FEF714FF5C
:10319000B442F6D31A4C1B4EC022B168200002F094
:1031A000EDFCB460FEF74AFCFEF7DEFEFFF7A0F888
:1031B000154C164EB44208D2013E361BB60808CC58
:1031C00098472B0001359E42F9D170BDFEF7E6FE0F
:1031D000D5E7C04600E00040BFCDFBFEFE7F3C00CF
:1031E00000F0004000C00040080A0020180A00203B
:1031F000FFFFFF0100F00140080A0020F80900204D
:103200000000002000ED00E0180A00201C0A002049
:1032100000BEFDE7094A03001068002805D00849F0
:10322000C3188B4207D81360704706480449C31877
:1032300010608B42F7D901204042F5E7240F0020AF
:1032400000000420780F002010B5FFF7E1FFC04612
:1032500030B50D0083B01900002A0BD0074B084C85
:103260000192009302002B00200001F0D3FB01200B
:10327000FFF7CEFF034B1A00F1E7C046CCCF00109A
:10328000DCCF001034CF00100FB400B5084883B075
:1032900002F042FD049B002B07D005A91800019104
:1032A00001F0D8FB034802F037FD0120FFF7B0FF23
:1032B0000CD0001034C8001010B50148FFF7E4FF2F
:1032C0001CD000109A4200D2885470477047C04604
:1032D000F8B557464546DE464E46E0B598460A9B49
:1032E00006009A460D9B0F00934615009B0710D1D0
:1032F0000B9B0C9A93420CD213005C460B9A9D1ABE
:103300005D4422004346013439002020B047A542E5
:10331000F7D10B9C6319002C09D01D0053462A1BC2
:10332000013C185D39004346B047002CF6D10D9B97
:103330009B070ED55B46EC1A0C9BA34209D9994614
:103340002A004346390020200134B0470135A14509
:10335000F6D82800F0BCBB46B246A946A046F8BD48
:10336000F0B54F464646D646C0B584B098460EAB3B
:103370001B7894469946129B0D9C109F119E9A07AC
:1033800024D4002E6AD1BC4220D201221A40924697
:10339000202C00D1D2E00C9A551E302201E0202CC6
:1033A00030D001342A55A742F9D85246002A0DD010
:1033B000B4420BD20C9A551E3022202C02D126E0AA
:1033C000202C63D001342A55B442F9D1DA0634D521
:1033D0005A0564D4002C5ED10F9A102A00D197E0D0
:1033E000022A00D1A8E030220C9C227001244A4617
:1033F000002A5ED15A0700D483E02B220C9D2A5567
:1034000001341CE05246002A02D0202E3ED920244E
:10341000DA0614D55A0512D4202F00D1A1E0202EAF
:103420003DD120261F2234000F9D102D00D18BE0AE
:10343000022D52D030250C9FBD54202CD7D10393A0
:103440000C9B62460093029643460194FFF740FFAF
:1034500004B0E0BCBA46B146A846F0BD0122150052
:103460001D40AA461A4229D04A46002A39D10C32B8
:103470001A4236D1BC429BD2202C00D08BE71022BE
:103480001A40202EC3D8002AA2D1D8E72024DA0679
:10349000D5D55A0503D4A74225D0B44223D00F9ADC
:1034A000102A25D0022A14D0202CC8D022000134A2
:1034B000C0E72D220C9D2A550134C0E7BC4200D341
:1034C00084E7202C00D066E710221A40002AE0D1C1
:1034D000B5E7202CB3D02200013462250C9FBD54E7
:1034E000E2E7013EC6E7621E012C00D174E79BE7CC
:1034F0009A0616D4202CA2D078220C9D2A5501348D
:10350000D2E71A079BD520220C9D2A55013496E755
:103510009A060FD478220C9C22703022627002240A
:1035200065E7202C00D18AE758250C9A12191570EE
:103530000134B9E75822EEE76222ECE71022554643
:103540001A40002D9FD1C1E7023C9D0604D4782586
:103550000C9F3D551400A9E758250C9F3D551400BC
:10356000A4E71F2260E7C04610B5002800D110BDB7
:1035700002F086FBFBE7C0460B0010B5002802D026
:1035800049681B68984710BDF0B557464E464546FA
:10359000DE46E0B599B08246894690460893229A65
:1035A000239B1000190001F0A0FD002800D0CDE001
:1035B000229823990122D94B524201F091FD002813
:1035C00000D0C3E0229823990122D54B524201F04A
:1035D00071FD002800D0B9E0229823990022002331
:1035E00001F068FD002800D0F1E1229E239F802396
:1035F000269ADB001A400D92269A1A4201D1062320
:1036000024938023269A1B011A403B009346099677
:10361000334300D0B3E0002A00D0C2E100230024ED
:103620000A930B94002304250993259B0024AB42A5
:1036300000D95C1B0223269A1A400C92269A134248
:1036400003D06B426B415B421C40099B002B07D0AF
:103650000A9A0B9B3000390001F0C3FC06000F00F2
:10366000229823990022002301F024FD002803D092
:10367000802109067B181F00269AAA4B0096019705
:103680001340089E0493249B039402934246330004
:103690004946504600F0AAF90400002D67D02020CA
:1036A000269A4946024013005A4253415B42621C2B
:1036B00018400A92330022004530D047099A6F1E05
:1036C000D317D4185C40D30F9B46002501E0202D72
:1036D00013D008AA94461F23200063440A21013511
:1036E0005E1901F031FA3031317020000A2101F009
:1036F0002BFA26000400092EE9D80523069300239F
:1037000004930A3303935B46089E029310AB0A9A14
:10371000009349463300504605970195FFF720FE78
:103720000C9A0400002A22D04246851A259AAA4201
:103730001DD9B04657461600220043464946202070
:103740000135B8470134AE42F6D810E0269B424618
:103750000493259B49460393249B50460293229B46
:10376000239C00930194089B00F040F90400200082
:1037700019B0F0BCBB46B246A946A046F0BD6A4BA4
:1037800078009C46400D604401F0C2FC674A684BDB
:1037900001F045FC674A684B01F01AFC674A3B039D
:1037A0001B0B1A4304000D0009981100644B002202
:1037B00001F005FC634A644B01F031FC02000B0090
:1037C0002000290001F004FC01F0BAFC099001F08E
:1037D0009FFC5E4A5E4B04000D0001F020FC0022BD
:1037E0005C4B01F0F5FB01F0ABFC5B4A5B4B290045
:1037F0000C90200001F013FC04000C980D0001F067
:1038000087FC574A574B01F00AFC02000B002000CE
:10381000290001F0D4FB04000D0002000B000A9403
:103820000B9501F0FCFB04000D000A980B990200B7
:103830000B0001F0CDFB00220E900F914A4B2000AF
:10384000290001F0CEFB0022484B01F0C1FB020031
:103850000B002000290001F0C4FB0022444B01F0C2
:10386000B7FB02000B002000290001F0BAFB0A9A06
:103870000B9B0D0080210400C905002001F09FFB77
:1038800002000B002000290001F0A2FB02000B0047
:103890000E980F9901F0A5FB0022284B01F098FB30
:1038A000344B0C9C9C4664442305002201F0B7FB7A
:1038B00004000D0002000B00300039000A940B9543
:1038C00001F0F8FB00285DD123002A00C6250999E4
:1038D00063318D42AD4159466D420435002900D116
:1038E000A3E6134363D030003900234A234B01F091
:1038F000EFFB002807D0002230003900204B01F0F8
:10390000D9FB002853D1249B002B00D18DE60D9BC1
:103910005A1E9341249AD31A249386E6FFFFEF7F21
:10392000FFFFEFFFFFF7FFFF01FCFFFFFB799F5059
:103930001344D33FB3C8608B288AC63F0000F03FD2
:103940000000F83F61436F63A787D23F71A37909F5
:103950004F930A400000E03F1655B5BBB16B0240E3
:10396000EF39FAFE422EE63F00002C4000002440D2
:1039700000001840FF0300002D431CEBE2361A3F05
:1039800080842E41099B0022013B09932000164BA5
:10399000290001F026FB0A00010003000A910B92A6
:1039A00094E7002300240A930B9400230993249A9C
:1039B000099B9A4214DDD31A013B24938023269A53
:1039C000DB001A4300230025269209932DE680226E
:1039D00012069446229B1E00239B63441F0006E6AA
:1039E00000232493EAE7C04600002440F0B5454692
:1039F000DE464E465746E0B595B08B469046994612
:103A00001E9A1F9B0A9019001000209D01F06DFB6B
:103A1000002800D0B0E11E981F990122C74B5242E6
:103A200001F048FB002800D037E11E981F990122C1
:103A3000C34B524201F054FB002800D0A7E01E986F
:103A40001F990022BF4B01F04BFB002800D088E0FB
:103A50001E981F990022BC4B01F02CFB002800D0BF
:103A60007FE01E981F990022002301F023FB00280D
:103A700000D0FAE000230B938023229C229ADB00E3
:103A80001C401A4200D102E1092D00D87EE106A9AE
:103A90008C462C00172200233021093C624401335C
:103AA000D154EF1A202B00D132E1A342F7D10022EA
:103AB000A44B069207931E981F9901F041FB050045
:103AC00001F026FB02000B001E981F9901F077FA07
:103AD000069A079B01F0A3FA0890099101F054FBA4
:103AE000060001F011FB02000B000898099901F093
:103AF00066FA0022954B0890099101F0F1FA00282E
:103B000000D1D2E00136300001F0FEFA069A079BA0
:103B100001F0DEFA002801D000260135AA46002F68
:103B200000D098E0280001F0F3FA02000B001E9884
:103B30001F9901F044FA854B002206000F0001F0A6
:103B4000B9FA0CAB9A46002845D100223000390062
:103B50007E4B01F0C5FA00283DD1EB073BD501357E
:103B600039E0229B42460493219B594603930A98CD
:103B70001E9B1F9C0295009301944B46FFF704FD8A
:103B800015B0F0BCBB46B246A946A046F0BD229B8C
:103B90005B0767D403226E4B22990192039121990E
:103BA0000291009342464B4659460A98FFF790FB14
:103BB000E6E706AA94461723280063440A21013445
:103BC0001E1900F099FF3031280031700A2100F0F1
:103BD00093FF051E76D0202CEBD10323229A1340AD
:103BE000012B1DD1219B002B1AD00B9B002B00D049
:103BF000BBE0229A0C33134200D0B6E0219BA342D3
:103C000000D887E006AB9C4617223023624404E0CC
:103C10002199013413558C4259D0202CF8D12024FD
:103C2000229B01940393219B02935346B9E706AA72
:103C3000944617230A216344300001341D1900F013
:103C400083FF3031297030000A21013F00F07CFFF2
:103C5000092E46D90600202CE9D155460CAB20246C
:103C60009A46B8E704223B4B96E71E9A1F9B00201A
:103C7000002101F0A4F901230B938023229C229AB6
:103C8000DB001E901F911C401A4200D0FCE600226F
:103C9000314B0627069207930DE7229B0393219B46
:103CA0000293042301932D4B7BE700220898099986
:103CB000264B01F0FFF9002800D02FE7002E4FD14E
:103CC00001362BE70323229A1340012B68D0202CC6
:103CD000A6D00B9B002B1FD02D2352461355013429
:103CE0009EE75546202CB9D030223B19002F4BD0EF
:103CF000172006A9013409180A55202CAED09C4281
:103D0000F6D10CAA92462E2251465C1CCA5462E798
:103D10002024CCE6202C83D0229B5B0708D4229B56
:103D20001B0700D47CE7202352461355013477E764
:103D30002B2352461355013472E7C046FFFFEFFFB5
:103D4000FFFFEF7F65CDCD4165CDCDC10000E03FE8
:103D500030D0001028D0001080842E4138D00010C0
:103D6000F30700D4DAE60136D8E6219B013B219324
:103D7000A34200D946E7AAE7229B0393219B029323
:103D800003230193084B0CE72300BAE7074BEA0033
:103D90009B185C681B682F000693079400248AE632
:103DA000219B002B93D020E734D00010E0D10010ED
:103DB000F0B54546DE4657464E46E0B5A1B01D007B
:103DC0002A9B90460B93D04AD04B83468A461A6072
:103DD000002900D1A4E1002328789946002800D1C9
:103DE000A6E1CB4B5E460993CA4B4C46D3464746A9
:103DF0000D930AE0631C984622003B005946B047E9
:103E000044462878002800D1CDE001352528F1D19D
:103E100008239A46043B9946023B9846013B002200
:103E20009C460C942878691C0300203BDBB2102BC5
:103E300003D8099C9B00E3589F460300303B0C9C31
:103E40000A92092B7FD9002398462A2800D1C1E085
:103E500000239A462E2800D190E00300683BDBB295
:103E6000122B1ED8AC4A9B00D3589F4663460D00C8
:103E70001A43D7E743460D001A43D3E74B460D00DC
:103E80001A43CFE710230D001A43CBE753460D002A
:103E90001A43C7E780235B000A9A68781A430A929C
:103EA00001310D0067280AD82428A3D90300253B37
:103EB000DBB2422B9ED80D9A9B00D3589F4601003F
:103EC0006939C9B20F2995D801238B409C46934B81
:103ED000994663464A4613400C9362464B461A4243
:103EE00000D05EE20A2900D124E1072982D10B9B90
:103EF00002CB9846002900D19BE121200A9A024377
:103F0000914610AB9C461F220F23404662440B95FE
:103F10009C46A04615000C9B0A9002E0202B0CD07A
:103F2000110064460C4020003730092C00D80738B7
:103F30000133E8540A090F29F0D80C930A9B444630
:103F40000B9D984685E1002398460A9B45469C4672
:103F500000E00131AB005B195B001D180878303DB3
:103F60000300303B092BF4D963460A930023A8468B
:103F70009A460D0001312E2800D06EE780200A9A63
:103F8000C00002430A9230225242944668780B00E5
:103F900084446246092A00D82EE12A2800D13DE156
:103FA0000D00013159E7DA46A146B346B846C84587
:103FB00003D801235B424344994643464A4651464F
:103FC0000020D847200021B0F0BCBB46B246A9462D
:103FD000A046F0BD0B9B04CB9046002A04DB68781A
:103FE0000B930D00013133E70A9A283802430A92F5
:103FF00042465242687890460D000B93013127E704
:10400000672800D1C7E1472800D114E2452800D134
:1040100016E20A9A0721049242460B9B0392073349
:1040200052468B43190002920CC930000092019352
:104030000B9122003B005946FFF7A6FA0400E0E688
:1040400080239B0028E76878682800D11BE2802342
:104050000A9A01311A430A9223E768786C2800D142
:1040600009E280230A9A5B001A430A92013118E799
:10407000462800D18AE10A9A0721049242460B9B06
:104080000392073352468B43190002920CC9300049
:10409000009201930B9122003B005946FFF7A6FCCA
:1040A0000400AEE6631C984622003B0059462520DA
:1040B000B0474446A5E60B9B04330C93631C99461A
:1040C0000A9B9A0700D4E7E10B9B22001878594617
:1040D0003B00B04743464444012B00D8B8E22B00D4
:1040E000B84625005F464C469946220043460134B7
:1040F00039002020B047AC42F7D12C00BB464D46DA
:1041000047460C9B0B937CE6B13D0010280F002026
:1041100040D00010D0D0001084D00010419000009A
:10412000DC4B28789B4600239946002800D058E6AF
:1041300000243CE70B9B02CB12930B789C461800A3
:104140005346002B00D09CE0002812D002235B4293
:104150000133994689444A460B008946110001E023
:104160008B4203D05A780133002AF9D149465B1AB1
:104170000C938023DB0099460A9A13400B934B461D
:104180001A4204D00C9B534501D953460C93022389
:1041900099460A9A13400A934B46134200D1B5E15F
:1041A0006346002B00D197E10B9B002B00D14CE123
:1041B000D1460B1B9A462B00A1444D462200B9461E
:1041C0005F469B4609E04B463900541CB0475346B6
:1041D000185D002800D158E122009542F3D15B46DA
:1041E000BB464F46A9461D004C460A9B002B00D0FB
:1041F00072E1129B0B9304E655460A9AA9004919ED
:10420000490001330D181878303D01003039092973
:10421000F4D9AA460A921D00591C1EE60B9BA878E9
:1042200004CB0235D143C9170A4092460B93691C4F
:1042300013E60A9B10211A008A431000113108432B
:10424000814680201A00C00002401100034200D1C4
:1042500057E64B46082206935346059208320392CE
:10426000002204930C9B0292019318AB220000934E
:1042700059463B003000FFF773F8434604000B93A8
:10428000BFE5002800D174E75346013B60E7622890
:1042900000D1DFE1582800D1ECE10A9980230A001F
:1042A000DB001A4010000A00194200D1BDE11123C1
:1042B0009A430C920C9A802311009B0019408C4663
:1042C0001A4200D046E1802311005B001940894664
:1042D0000B9904310A911A4200D08FE213005B0659
:1042E00000D59EE113001B0600D426E30B9B0022A1
:1042F0009B5ED9175A184A4092B2D90F0B91002BE6
:1043000000D177E2100010AA944642461F23129271
:1043100052466344AA4614944D460400B946B0463A
:104320001F00139201E0202D0FD020000A2100F081
:104330000BFC01357E193031317020000A2100F06C
:1043400003FC26000400092EEDD8129B4646984631
:10435000139B4F46A94655469A46149C0C9B0693C0
:1043600043460593534604930A2303930B9B0293FE
:104370004B46019318AB2200009359463B00300096
:10438000FEF7EEFF0A9B04000B933AE520230A9AFE
:104390001A430A926FE680230A9A1B011A430A9273
:1043A00037E6782800D0AFE10A9880230200DB00CE
:1043B0001A4011000200184200D1D0E20D239A43A6
:1043C000100003330A93802302009B001A40944696
:1043D000184200D0ACE1802302005B001A409146F5
:1043E0000B9A04320C92184200D04AE2430600D4E1
:1043F00093E20B9B1B780893002B00D04BE110330A
:104400009843002900D146E100239946434605938D
:10441000534604930A9B06900393002302934B4652
:10442000019318AB2200009359463B003000FEF781
:1044300097FF040065E680230A9A1B011A430A923B
:1044400020230A9A1A430A92E3E50B1B9A460C9B17
:1044500099462B005D469B4622003B002900B04751
:1044600053460134185D0028F6D14B460C935B4649
:10447000AB461D00B9E6C0239B000A9AA8781A43F0
:104480000A92E91C0DE5C023F7E75D46BB464F469F
:10449000ABE6C046CD3200104346012B00D8D1E038
:1044A000631E4344B9461D005F46A2468B46220068
:1044B0004B46013439002020B047AC42F7D15D466D
:1044C000BB464F46A14654460B9B4A461878594670
:1044D0003B004444B04714E60C9BA146984500D8E5
:1044E00087E64444E41A2B00B84625005F464C4654
:1044F000994622004346013439002020B047AC429F
:10450000F7D12C00BB464D46474672E60C988045D5
:1045100000D81CE243461A19131A99462B004D463F
:10452000B9465F469B460C9122004B460134390048
:104530002020B047AC42F7D143460C9901330C938D
:104540000B785D469C46BB464F466046002800D02F
:104550002AE64EE607220B9B07339343013294462B
:104560009C4462460B920CCBD90F0A91110019435F
:104570005FD0D9171191109151400E911199594066
:104580000F910E980F99109A119B801A99410E90D5
:104590000F9110AA00239446424699461292524621
:1045A0001F336344B046AA464E461494B9460E9C47
:1045B0000F9D1F00139201E0202E10D02000290033
:1045C0000A22002300F0FEFA013630322B00BA55E1
:1045D0000D0022000400002BEED1092AECD8129B1A
:1045E0004F46B14646469846139B0E940F95554646
:1045F0009A46149C0C9B069343460593534604939A
:104600000A2303930A9B02934B46019318AB2200A3
:10461000009359463B003000FEF7A2FE0400FFF76E
:10462000F0FB0B9B1B781A0067E610239A430C9251
:1046300040E6002399460028DCD1002200230E9298
:104640000F93A6E70B9B2200187859463B00B04712
:104650004C4656E50A9880230200DB001A40110000
:10466000184200D15FE102000D239A430B3B10007A
:104670000A93A8E60A9880230200DB001A40110082
:104680000200184200D166E10D2320209A43033333
:1046900010430A9397E66123820600D54123DBB2DB
:1046A0000A3B0B93434610A91F228C461293534694
:1046B0006244AA46149415974C468046B1461700AA
:1046C0000A9E089D139308E03033DBB201343B555A
:1046D000B5420ED3202C0CD005003100280000F08C
:1046E00033FACBB20929EFD90B9A94466344DBB273
:1046F000ECE7129B40469846139B4E465546A14612
:104700009A46149C159F81E66F2800D037E10A99DC
:104710000C230A009A43802310000A00DB001A4091
:1047200011000A9A1A4200D021E108230A934AE6AE
:104730000B9AFA3BFF3B07329A4301339C46944461
:1047400063460B93136852680893134312921A1E20
:1047500005D10023103299469043002941D16122AE
:10476000810600D54122D2B20A3A0C924246002379
:1047700010A9139252468C46994614921F330A9AF6
:104780006344AA46159417964C469046B946089E2F
:104790001F00129D16900AE03032D2B2002301347D
:1047A0003A55AB4211D0202C11D006000D004246E4
:1047B00000233000290000F005FAD2B2092AEBD913
:1047C0000C9B9C466244D2B2E8E7B045EBD9139B00
:1047D00055469846149B4F469A46A1461698179EF2
:1047E000159C43460593534604930A9B06900393F6
:1047F000002308E7002800D0B0E584E50B9B1B6888
:10480000DA0F1100002B00D194E0DA17981850400D
:1048100010AA914642461F23129252464B44A0468C
:10482000AA4614970400B14665461F000B911392E7
:1048300001E0202D0FD020000A2100F085F901357C
:104840007E193031317020000A2100F07DF92600F8
:104850000400092EEDD8129B444698460B9BAC46AB
:104860001900139B55464E469A46149F0C9B029185
:10487000069343460593534604930A2303936346E2
:1048800077E50B9B1B680893002B03D110339843EB
:10489000002937D16123820600D54123DBB20A3BD0
:1048A0000B93434610A989461F22129353464A444C
:1048B000AA46B14614941597644680461700089D91
:1048C0000A9E139308E03033DBB201343B55B54206
:1048D0000ED3202C0CD005003100280000F034F954
:1048E000CBB20929EFD90B9A94466344DBB2ECE7CB
:1048F000129B40469846139B55464E469A46A44600
:10490000159F149C43460593534604930A9B0690B7
:10491000039300230293634682E5030613D50B9BA2
:104920001B88089368E502000C239A430A3B100099
:104930000A9348E5002899D16AE70B9B1B68D917B1
:104940005A184A40D9E40B9B1B68089354E50300AE
:1049500001330C93F9E520230A9A1A430A920C2397
:104960000A9A00219A43043310000A932BE50A9B0C
:104970000C9308230A930D230C98984323E51023E6
:104980000A9A9A430C9269280AD10A9980230A004C
:10499000DB001A4010000A00194200D18AE486E4C4
:1049A0000A991C230A009A43802310000A00DB00A6
:1049B0001A4011000A9A1A4202D10A230A9302E508
:1049C0000A230A93D7E7C0460EB4012230B584B05B
:1049D00007AC08CC064D0100009428005242039415
:1049E000FFF7E6F904B030BC08BC03B01847C04676
:1049F000C532001000B585B00391012102900093EB
:104A0000034813004A4202A9FFF7D2F905B000BDDE
:104A1000793500100FB430B50C4985B008AA08CA22
:104A20000D680392002D0CD000920122084C5242D6
:104A3000200002A9A847012005B030BC08BC04B082
:104A40001847180001F068F90020F5E7280F00204A
:104A50006935001010B5094A0300146884B0002CB1
:104A600008D0012200910648524203A9A047012024
:104A700004B010BD01F050F90020F9E7280F002024
:104A80006935001001480421014B1847200300201C
:104A9000B54A0010142310B50100188804331B8890
:104AA000984710BD162310B50100188802331B88E3
:104AB000984710BDF8B54746CE4680B50F1E19D0B1
:104AC00014239946043304000025012698464B46DA
:104AD0001888434621681B88984701C4431E9841A3
:104AE000013540420640AF42F1D13000C0BCB9466A
:104AF000B046F8BD0126F8E7124A936F9B0815D21D
:104B00009066D166002905D0FFE7FFE7FFE7516F08
:104B1000106F704704B580210906C2175140002864
:104B200000D0C84307F0FCFD002104BDF0B5146EB1
:104B3000556E576F166FFFF7E3FF1466556657679C
:104B40001667F0BD000000D0114A936F9B0813D286
:104B500010665166002905D0FFE7FFE7FFE7516FB8
:104B6000106F704704B5002801D00020C04307F043
:104B7000D7FD002104BDC046F0B5146E556E576FC9
:104B8000166FFFF7E5FF1466556657671667F0BDA9
:104B9000000000D094464A4A926F9208624601D2C1
:104BA00028E0C046F0B5464E346E756E776F366FAE
:104BB00000F020F89446424A146655665767166717
:104BC0006246F0BD94463E4A926F9208624601D218
:104BD00054E0C046F0B53A4E346E756E776F366F5E
:104BE00000F04CF89446364A1466556657671667C7
:104BF0006246F0BD002B24DB11D000293EDA00B55F
:104C0000C943404200D1013100F038F8C943404265
:104C100000D10131DB43524200D1013300BD002AF3
:104C2000EBD1002801D1002905D00020C90FC90708
:104C300001D1C043410800B507F06AFD00220023FE
:104C400000BD00B500290ADBDB43524200D101332D
:104C500000F014F8C943404200D1013100BDC943FE
:104C6000404200D10131DB43524200D1013300F018
:104C700005F8DB43524200D1013300BD002923D1A6
:104C8000002B18D1002A0CD0BC460D4F38667A662E
:104C900000210023FFE7FFE7FFE77A6F386F6746E1
:104CA0007047002801D00748010000B507F030FD2B
:104CB0000022002300BD02000B00002000217047ED
:104CC000000000D0FFFFFFFF002B00D0BFE0130C5F
:104CD00028D1002AE7D080B4114F39667A66FFE701
:104CE000FFE730B4040C7B6F396F1B0423433B6632
:104CF0007A66FFE7FFE7FFE7C04684B27B6F3D6F50
:104D00001B0423433B667A66FFE7FFE7C0460023A8
:104D10002C042D0C7A6F386F00196941B0BC7047B4
:104D2000000000D0F0B594460025140E01D1120207
:104D30000835140F01D112010435940F01D19200EE
:104D40000235D40F01D152000135D40B0134254F67
:104D50007C66254C3C660E0C93B2FFE7FFE7FFE74D
:104D60003C6F6643360C7703BE467343DF0B5B0430
:104D7000C01AB941130C7343DB18C91ACE08664335
:104D8000360CB64493B273431F0F1B01C01AB941CE
:104D9000130C73431F0B1B05C01AB941860D8F02FC
:104DA0003E436643360C092D24DB520A7243801AB7
:104DB0007703460A6643360C16235B1BDE40DF4052
:104DC000BF1964466643821B7046043506330100F2
:104DD000D940A840C01900D30131A24206D2002315
:104DE000F0BD0000000000D0FFFFFFFF121B0130EC
:104DF000F3D3F1E709277F1BFE406446A2B272435A
:104E0000801A00D20139220C7243130C1204821A48
:104E100099410B007046043513370100F940A84052
:104E2000801900D30131002B02D1A2420AD2F0BD79
:104E3000013000D30131121BFAD2013BF8D1A2425A
:104E400000D2F0BD013000D30131121BF7E7F0B5FD
:104E50001C0C00D080E00CB400251C0A04D11B02FD
:104E6000160E3343120208351C0B04D11B01160F1A
:104E70003343120104359C0B04D19B00960F33433E
:104E800092000235DC0B02D192185B4101351C0007
:104E9000971864410134464F7C66464C3C660E0CC4
:104EA000FFE7FFE7FFE7C0463C6F6643360C77033A
:104EB000BE4697B27743C01B00D20139C01B00D257
:104EC00001399FB27743C91BC91B170C77437E0476
:104ED000FF0B801BB941CE086643360C0C2D33DB2B
:104EE000B644120B1F053A431B0B97B27743C01B06
:104EF00000D201399FB27743C91B170C77433E0498
:104F00003F0C801BB941860D8F023E436643292723
:104F10007F1BFE400C3D7746AF40BF1930BCA2B2AC
:104F2000ABB272437343801A9941220C7243130C43
:104F30001204801A994102000B000137001BA9419D
:104F4000F9D2781E0021F0BD0C277F1BFE4077466A
:104F50007F0BAF40FF19E0E700245D1C07D0144F22
:104F60007D663966FFE7FFE7FFE7FFE73C6F95B235
:104F70009EB265436643401BB141150C1E0C654350
:104F8000664336042F0C3E432D04401BB141994229
:104F900004D202000B0020000021F0BD01D190429C
:104FA000F7D3801A994101349942F2D3F6E7000011
:104FB000000000D0FFFFFFFF48404140484018B4C8
:104FC0001B4B5B68FC46019308BD04DFF3520010E5
:104FD00018B4174B1B68FC46019308BD00DFFD5257
:104FE00000109446134A926F920809D2624618B490
:104FF0000F4BDB68FC46019308BD0CDFB555001074
:105000000C4AF0B5146E556E576F166F6246FFF777
:10501000EEFF084A1466556657671667F0BD18B468
:10502000034B9B68FC46019308BD08DF59540010F0
:10503000480B0020000000D0FFB5504042405040D7
:1050400059404B40594000E0FFB5154F4C00640DEE
:1050500003D0BC4204D10C0314D80020090D09056B
:105060005C00640D03D0BC4204D11C030AD80022AA
:105070001B0D1B0501264B4009D44B4003D58B4229
:1050800000D18242FFBD9942FCD19042FFBD0B434B
:10509000DB1803431343F5D0C9434918FFBD000093
:1050A000FF07000000B5FFF7CFFF01D0002000BDD3
:1050B000012000BD00B5FFF7C7FF804100BDC0461D
:1050C00000B5FFF7C1FF01D9002000BD012000BDE0
:1050D00000B5FFF7B1FF01D9002000BD012000BDE0
:1050E00000B5FFF7A9FF804100BD012040054A003F
:1050F000121804D85A00121801D800207047012055
:1051000070470020704700000021002805D170473B
:10511000C1174840401AFAD0C90713B5064B1B689F
:1051200098470CBC441CA2401005120B0349091BF4
:1051300009051943114310BD5C0F00201F04000036
:1051400010B54C00620D8023D218DB00D21A5B052B
:105150007E2A10DD9E3A13DACC1709034908194359
:105160005242D140640001341532202A05DAD04081
:105170000843604310BD002010BD0846604310BDC9
:10518000C80FC018013810BD18B4044B5B6AFC4648
:10519000019308BD24DF655700100000480B002074
:1051A00018B4044BDB6DFC46019308BD5CDF7158FD
:1051B00000100000480B0020C94211D300B549007F
:1051C0004908002200F018F8002904D400224042C7
:1051D0008A41114600BD80210906002000BD000063
:1051E00018B4044BDB6EFC46019308BD6CDF7357AB
:1051F00000100000480B002018B4044B9B6FFC46C5
:10520000019308BD78DF8F5700100000480B002085
:1052100018B4044BDB6FFC46019308BD7CDFFD57DF
:1052200000100000480B0020132370B51D78012DDD
:1052300015D010DD1D48FFF735FC1D4C0100802204
:10524000200000F09BFC022D2DD01A48FFF722FC15
:10525000194B186070BD194B154CA364F5E7174B3B
:10526000134C23606360A360E36023616361A36107
:10527000E36123626362A362E36223636363A36304
:10528000E36323646364A364E36423656365A365E4
:10529000E36523666366A366E36623676367A367C4
:1052A000E367A364D1E7054BA364CEE75344000052
:1052B000480B00204C3300005C0F0020C15200104E
:1052C00007B5604601880A0A0230DF2AFAD1C9B25E
:1052D000820804D3028840880004104300E000687C
:1052E000014A5050039007BD480B00200FB403BC87
:1052F0000CBCF0B50124E407634000E0F0B50C0DF0
:10530000CF0F661E3605891B640503D3C94340428F
:1053100000D30131640D03D0661CF60A07D0E41BEC
:1053200000207F00791C89078912803C24031D0D11
:10533000DF0F6E1E36059B1B6D0503D3DB43524208
:1053400000D301336D0D03D06E1CF60A07D0ED1BA0
:1053500000227F007B1C9B079B12803D2D032F1B8F
:10536000661B58D4A446202E46DA20371400BC40D1
:105370001D00BD40F24033412A4380185941CB0FF4
:1053800005D0C943C04300226442504151416246A6
:105390004D0D28D10D0D07D100281FD024194041F3
:1053A0004941013A0D0DF9D0640006D3013000D314
:1053B0000131002C01D140084000013A0BD4941C6B
:1053C000E40A04D112051144DB071944F0BDD907E2
:1053D000204B194300E0D9070020F0BD0029DDD1A2
:1053E000002CDBD1F0BD0132C6074008CD072843B1
:1053F0004908002EE1D0D9E73C2E29DA203E40377B
:105400001400BC4000D00124F24014431A00BB40F9
:105410001C43D317ACE7AC46202F08DA2036040033
:10542000B4400D00B540F84039412843A5E73C2F72
:105430000CDA203F40360400B44000D00124F8408C
:1054400004430800B1400C43C117EAE710001900FB
:10545000002494E70000F07FF0B50C0D661E3605C1
:10546000891BE60A6405640D02D0651CED0A04D0B0
:10547000002001210905803C2403A4461C0D671E61
:105480003F05DB1BE70A6405640D02D0651CED0ACD
:1054900004D0002201231B05803C24037740644490
:1054A00097B484B296B27443070C7E43150C6F43D5
:1054B00080B26843361802D3012000043F1830043C
:1054C000350C00197D41844688B29AB250430C0CC9
:1054D00062431F0C7C438EB27E43921902D3012695
:1054E0003604A4191604170C3618674101BC81B2A2
:1054F0009AB25143040C62431B0C5C4380B2584384
:10550000121802D30120000424181004130C4018B0
:1055100063412D185E410020474106BC88B293B21A
:1055200058430C0C6343120C544389B251435B182B
:1055300002D301210904641819041A0C09186241E4
:105540006D1856410020474118BCF902720D1143F5
:10555000F0026A0D1043ED020A0D03D16D194041AE
:105560004941013B124E9B1B7600B3420ED26D00A7
:1055700007D30130002671416646354301D140080A
:1055800040001B05C918E4072144F0BD0BDA0133C4
:1055900006D1013004D101314F0D01D04908F2E7A5
:1055A000E1070020F0BD013631050020EBE70000E7
:1055B000FF030000F0B51C0D671E3F05DB1BE70A6B
:1055C0006405640D02D0661CF60A04D00022012393
:1055D0001B05803C2403D0252D060026F6432E66AD
:1055E0001E096E66CE0FF619B44649004F0D02D063
:1055F0007E1CF60A03D000200021403F3F033E1BE3
:10560000B600B444013F7F05C91B49082E6F01361F
:1056100076089C02950D25437543ED137543AD1334
:1056200001356D10F603761B0CB4CC02450D2C43EE
:10563000A2B2B3B25A43270C7B43350C6F43A4B2DA
:105640006C431B1902D3012424043F191C041D0CB4
:10565000A4187D4124196D41009A91B2ACB2614306
:10566000170C7C432B0C5F4392B25A43A41802D30D
:1056700001221204BF182204230C52187B41019C02
:105680006C431B19520ED9010A434401A01A81B27E
:10569000B2B2514303145A43360C734387B2774373
:1056A000D617D21900277E4136049B191704160C11
:1056B0007F185E417316ED18F301002680337541A3
:1056C000A90F06D16400690AE8055B0A184309D2EC
:1056D0002FE00422944480337541A90AA8059B0A4F
:1056E000184326D3404149412404009A019B0D00F0
:1056F0005543641B4343E41A95B286B27543170CB5
:105700007E43030C5F4392B25A43B61802D3012280
:105710001204BF183204330C52197B4152429C418F
:10572000002C02D40022013051414008CA07104326
:10573000490802B06246D7079210084BD218084BAE
:105740009A4203D212058918C919F0BD0020002A17
:1057500001DC3900F0BD01331905F5E7FD03000058
:10576000FE070000002200B5203200F010F808000B
:1057700000BD002200B500F00CF8CA179A4200D113
:1057800000BDD8430121C907414000BD00220B15CF
:105790000AD410B5944600F0A7F81414013400DAC6
:1057A0000021CB17144C2047002000217047624491
:1057B000343A0CD40C2A07DA04009140904052424B
:1057C0002032D440214310BDD843D94310BD2032EC
:1057D00007D40C469440524220321141D04020431D
:1057E00010BD0800C917203203D4524220321041A4
:1057F00010BD1800190010BDAF5700104A00520D1F
:10580000144BD21A13DDFF2A1EDAD205CB0FDB07A9
:105810001A43C300400F0903490A084310435B00C1
:1058200001D301D0013070474308FBD2704702D04A
:10583000C80FC00770470A0312130132F8D1420F94
:10584000072AF5D1012200E0FF22C80F00028018CC
:10585000C00570478003000000210A00002104E019
:1058600000210A00C11704E00022002306E0C04620
:105870000022CB1758405940C01A994130B5184CF6
:10588000A21A002903D1010010D00020203A4C15A3
:1058900012D104D2013A001849414C0DFAD3114CEF
:1058A000A24204D212058918DB07C91830BDD243C1
:1058B000520D00200021F5E703D4013A00184941B8
:1058C000FBD50B324405C00A4D052843C90A6400C4
:1058D00003D0002460416141E1E7E0D34408F8E7E8
:1058E00032040000FE0700000A0DCC0F531E1B05FA
:1058F000C91A520503D3C943404200D30131520DA6
:1059000003D0531CDB0A07D0121B00206400611C6B
:1059100089078912803A1203014BD21A704700009E
:10592000FF03000051434343C9188C46110C83B256
:105930004B4310B4040C614392B280B250436243B3
:105940001C041B0C001910BC59411304120CC01884
:1059500051416144704700004840414048400E4B6F
:105960005B6818470C4B1B6818470C4A936F9B08E1
:1059700002D2094BDB681847F0B5146E556E576FAD
:10598000166FFFF7F6FF054A1466556657671667E8
:10599000F0BD014B9B681847480C0020000000D068
:1059A000491A002808D1084670470000C10FC907EE
:1059B00000D54042002817D0F44603B40B4B1B68B7
:1059C000984706BC81409E384042803107D20B0682
:1059D00007D04900490AC005104308436047013019
:1059E000F8E7490A8902F5E7704700005C0F0020DC
:1059F000034BDB6FFC4618477CDF955A0010000014
:105A0000480C0020132310B512481C78FFF74AF801
:105A10000100012C0AD003DD80220F4800F0AEF80F
:105A20000E48FFF737F80E4B186010BD0A4C542291
:105A3000200000F0A3F80B4B6365A365E3652366C4
:105A40006366A366E36623676367A367E36723620E
:105A5000E361E5E753460000480C00204C330000AA
:105A60005C0F0020695A001007B5604601880A0AD9
:105A70000230DF2AFAD1C9B2820804D302884088F2
:105A80000004104300E00068014A5050039007BD35
:105A9000480C0020C30FDB0741000A0E07D0FF2A85
:105AA00008D00909054A89181943400770471900A9
:105AB000002070470249C918FAE7000000000038CA
:105AC0000000F07F70B504000A4E300006F038FE8A
:105AD000200000F0E7FD0500300006F011FE002D6B
